{
  "_format": "hh-sol-artifact-1",
  "contractName": "DeMarketAvatarNFT",
  "sourceName": "contracts/DeMarketNFT.sol",
  "abi": [
    {
      "inputs": [
        {
          "internalType": "address",
          "name": "_token",
          "type": "address"
        }
      ],
      "stateMutability": "nonpayable",
      "type": "constructor"
    },
    {
      "anonymous": false,
      "inputs": [
        {
          "indexed": true,
          "internalType": "address",
          "name": "owner",
          "type": "address"
        },
        {
          "indexed": true,
          "internalType": "address",
          "name": "approved",
          "type": "address"
        },
        {
          "indexed": true,
          "internalType": "uint256",
          "name": "tokenId",
          "type": "uint256"
        }
      ],
      "name": "Approval",
      "type": "event"
    },
    {
      "anonymous": false,
      "inputs": [
        {
          "indexed": true,
          "internalType": "address",
          "name": "owner",
          "type": "address"
        },
        {
          "indexed": true,
          "internalType": "address",
          "name": "operator",
          "type": "address"
        },
        {
          "indexed": false,
          "internalType": "bool",
          "name": "approved",
          "type": "bool"
        }
      ],
      "name": "ApprovalForAll",
      "type": "event"
    },
    {
      "anonymous": false,
      "inputs": [
        {
          "indexed": true,
          "internalType": "address",
          "name": "previousOwner",
          "type": "address"
        },
        {
          "indexed": true,
          "internalType": "address",
          "name": "newOwner",
          "type": "address"
        }
      ],
      "name": "OwnershipTransferred",
      "type": "event"
    },
    {
      "anonymous": false,
      "inputs": [
        {
          "indexed": true,
          "internalType": "address",
          "name": "from",
          "type": "address"
        },
        {
          "indexed": true,
          "internalType": "address",
          "name": "to",
          "type": "address"
        },
        {
          "indexed": true,
          "internalType": "uint256",
          "name": "tokenId",
          "type": "uint256"
        }
      ],
      "name": "Transfer",
      "type": "event"
    },
    {
      "inputs": [
        {
          "internalType": "address",
          "name": "to",
          "type": "address"
        },
        {
          "internalType": "uint256",
          "name": "tokenId",
          "type": "uint256"
        }
      ],
      "name": "approve",
      "outputs": [],
      "stateMutability": "nonpayable",
      "type": "function"
    },
    {
      "inputs": [
        {
          "internalType": "address",
          "name": "owner",
          "type": "address"
        }
      ],
      "name": "balanceOf",
      "outputs": [
        {
          "internalType": "uint256",
          "name": "",
          "type": "uint256"
        }
      ],
      "stateMutability": "view",
      "type": "function"
    },
    {
      "inputs": [
        {
          "internalType": "uint256",
          "name": "tokenId",
          "type": "uint256"
        }
      ],
      "name": "getApproved",
      "outputs": [
        {
          "internalType": "address",
          "name": "",
          "type": "address"
        }
      ],
      "stateMutability": "view",
      "type": "function"
    },
    {
      "inputs": [],
      "name": "getTokenBalance",
      "outputs": [
        {
          "internalType": "uint256",
          "name": "",
          "type": "uint256"
        }
      ],
      "stateMutability": "view",
      "type": "function"
    },
    {
      "inputs": [
        {
          "internalType": "address",
          "name": "owner",
          "type": "address"
        },
        {
          "internalType": "address",
          "name": "operator",
          "type": "address"
        }
      ],
      "name": "isApprovedForAll",
      "outputs": [
        {
          "internalType": "bool",
          "name": "",
          "type": "bool"
        }
      ],
      "stateMutability": "view",
      "type": "function"
    },
    {
      "inputs": [
        {
          "internalType": "address",
          "name": "to",
          "type": "address"
        }
      ],
      "name": "mint",
      "outputs": [],
      "stateMutability": "nonpayable",
      "type": "function"
    },
    {
      "inputs": [
        {
          "internalType": "uint256",
          "name": "_amount",
          "type": "uint256"
        }
      ],
      "name": "mintWithToken",
      "outputs": [],
      "stateMutability": "nonpayable",
      "type": "function"
    },
    {
      "inputs": [],
      "name": "name",
      "outputs": [
        {
          "internalType": "string",
          "name": "",
          "type": "string"
        }
      ],
      "stateMutability": "view",
      "type": "function"
    },
    {
      "inputs": [],
      "name": "owner",
      "outputs": [
        {
          "internalType": "address",
          "name": "",
          "type": "address"
        }
      ],
      "stateMutability": "view",
      "type": "function"
    },
    {
      "inputs": [
        {
          "internalType": "uint256",
          "name": "tokenId",
          "type": "uint256"
        }
      ],
      "name": "ownerOf",
      "outputs": [
        {
          "internalType": "address",
          "name": "",
          "type": "address"
        }
      ],
      "stateMutability": "view",
      "type": "function"
    },
    {
      "inputs": [],
      "name": "price",
      "outputs": [
        {
          "internalType": "uint256",
          "name": "",
          "type": "uint256"
        }
      ],
      "stateMutability": "view",
      "type": "function"
    },
    {
      "inputs": [],
      "name": "renounceOwnership",
      "outputs": [],
      "stateMutability": "nonpayable",
      "type": "function"
    },
    {
      "inputs": [
        {
          "internalType": "address",
          "name": "from",
          "type": "address"
        },
        {
          "internalType": "address",
          "name": "to",
          "type": "address"
        },
        {
          "internalType": "uint256",
          "name": "tokenId",
          "type": "uint256"
        }
      ],
      "name": "safeTransferFrom",
      "outputs": [],
      "stateMutability": "nonpayable",
      "type": "function"
    },
    {
      "inputs": [
        {
          "internalType": "address",
          "name": "from",
          "type": "address"
        },
        {
          "internalType": "address",
          "name": "to",
          "type": "address"
        },
        {
          "internalType": "uint256",
          "name": "tokenId",
          "type": "uint256"
        },
        {
          "internalType": "bytes",
          "name": "data",
          "type": "bytes"
        }
      ],
      "name": "safeTransferFrom",
      "outputs": [],
      "stateMutability": "nonpayable",
      "type": "function"
    },
    {
      "inputs": [
        {
          "internalType": "address",
          "name": "operator",
          "type": "address"
        },
        {
          "internalType": "bool",
          "name": "approved",
          "type": "bool"
        }
      ],
      "name": "setApprovalForAll",
      "outputs": [],
      "stateMutability": "nonpayable",
      "type": "function"
    },
    {
      "inputs": [
        {
          "internalType": "string",
          "name": "baseURI_",
          "type": "string"
        }
      ],
      "name": "setBaseURI",
      "outputs": [],
      "stateMutability": "nonpayable",
      "type": "function"
    },
    {
      "inputs": [
        {
          "internalType": "uint256",
          "name": "_price",
          "type": "uint256"
        }
      ],
      "name": "setPrice",
      "outputs": [],
      "stateMutability": "nonpayable",
      "type": "function"
    },
    {
      "inputs": [
        {
          "internalType": "address",
          "name": "_token",
          "type": "address"
        }
      ],
      "name": "setToken",
      "outputs": [],
      "stateMutability": "nonpayable",
      "type": "function"
    },
    {
      "inputs": [
        {
          "internalType": "bytes4",
          "name": "interfaceId",
          "type": "bytes4"
        }
      ],
      "name": "supportsInterface",
      "outputs": [
        {
          "internalType": "bool",
          "name": "",
          "type": "bool"
        }
      ],
      "stateMutability": "view",
      "type": "function"
    },
    {
      "inputs": [],
      "name": "symbol",
      "outputs": [
        {
          "internalType": "string",
          "name": "",
          "type": "string"
        }
      ],
      "stateMutability": "view",
      "type": "function"
    },
    {
      "inputs": [
        {
          "internalType": "uint256",
          "name": "tokenId",
          "type": "uint256"
        }
      ],
      "name": "tokenURI",
      "outputs": [
        {
          "internalType": "string",
          "name": "",
          "type": "string"
        }
      ],
      "stateMutability": "view",
      "type": "function"
    },
    {
      "inputs": [
        {
          "internalType": "address",
          "name": "from",
          "type": "address"
        },
        {
          "internalType": "address",
          "name": "to",
          "type": "address"
        },
        {
          "internalType": "uint256",
          "name": "tokenId",
          "type": "uint256"
        }
      ],
      "name": "transferFrom",
      "outputs": [],
      "stateMutability": "nonpayable",
      "type": "function"
    },
    {
      "inputs": [
        {
          "internalType": "address",
          "name": "newOwner",
          "type": "address"
        }
      ],
      "name": "transferOwnership",
      "outputs": [],
      "stateMutability": "nonpayable",
      "type": "function"
    },
    {
      "inputs": [],
      "name": "withraw",
      "outputs": [],
      "stateMutability": "nonpayable",
      "type": "function"
    }
  ],
  "bytecode": "0x60806040526301312d0060095560405180606001604052806036815260200162003d3060369139600a9081620000369190620004ac565b503480156200004457600080fd5b5060405162003d6638038062003d6683398181016040528101906200006a9190620005fd565b6040518060400160405280601381526020017f44654d61726b657420417661746172204e4654000000000000000000000000008152506040518060400160405280600881526020017f44654d61726b65740000000000000000000000000000000000000000000000008152508160009081620000e79190620004ac565b508060019081620000f99190620004ac565b5050506200011c620001106200016460201b60201c565b6200016c60201b60201c565b80600760006101000a81548173ffffffffffffffffffffffffffffffffffffffff021916908373ffffffffffffffffffffffffffffffffffffffff160217905550506200062f565b600033905090565b6000600660009054906101000a900473ffffffffffffffffffffffffffffffffffffffff16905081600660006101000a81548173ffffffffffffffffffffffffffffffffffffffff021916908373ffffffffffffffffffffffffffffffffffffffff1602179055508173ffffffffffffffffffffffffffffffffffffffff168173ffffffffffffffffffffffffffffffffffffffff167f8be0079c531659141344cd1fd0a4f28419497f9722a3daafe3b4186f6b6457e060405160405180910390a35050565b600081519050919050565b7f4e487b7100000000000000000000000000000000000000000000000000000000600052604160045260246000fd5b7f4e487b7100000000000000000000000000000000000000000000000000000000600052602260045260246000fd5b60006002820490506001821680620002b457607f821691505b602082108103620002ca57620002c96200026c565b5b50919050565b60008190508160005260206000209050919050565b60006020601f8301049050919050565b600082821b905092915050565b600060088302620003347fffffffffffffffffffffffffffffffffffffffffffffffffffffffffffffffff82620002f5565b620003408683620002f5565b95508019841693508086168417925050509392505050565b6000819050919050565b6000819050919050565b60006200038d62000387620003818462000358565b62000362565b62000358565b9050919050565b6000819050919050565b620003a9836200036c565b620003c1620003b88262000394565b84845462000302565b825550505050565b600090565b620003d8620003c9565b620003e58184846200039e565b505050565b5b818110156200040d5762000401600082620003ce565b600181019050620003eb565b5050565b601f8211156200045c576200042681620002d0565b6200043184620002e5565b8101602085101562000441578190505b620004596200045085620002e5565b830182620003ea565b50505b505050565b600082821c905092915050565b6000620004816000198460080262000461565b1980831691505092915050565b60006200049c83836200046e565b9150826002028217905092915050565b620004b78262000232565b67ffffffffffffffff811115620004d357620004d26200023d565b5b620004df82546200029b565b620004ec82828562000411565b600060209050601f8311600181146200052457600084156200050f578287015190505b6200051b85826200048e565b8655506200058b565b601f1984166200053486620002d0565b60005b828110156200055e5784890151825560018201915060208501945060208101905062000537565b868310156200057e57848901516200057a601f8916826200046e565b8355505b6001600288020188555050505b505050505050565b600080fd5b600073ffffffffffffffffffffffffffffffffffffffff82169050919050565b6000620005c58262000598565b9050919050565b620005d781620005b8565b8114620005e357600080fd5b50565b600081519050620005f781620005cc565b92915050565b60006020828403121562000616576200061562000593565b5b60006200062684828501620005e6565b91505092915050565b6136f1806200063f6000396000f3fe608060405234801561001057600080fd5b50600436106101585760003560e01c806382b2e257116100c3578063b3eaff8b1161007c578063b3eaff8b1461039d578063b88d4fde146103b9578063c87b56dd146103d5578063e850497a14610405578063e985e9c51461040f578063f2fde38b1461043f57610158565b806382b2e257146102ed5780638da5cb5b1461030b57806391b7f5ed1461032957806395d89b4114610345578063a035b1fe14610363578063a22cb4651461038157610158565b806342842e0e1161011557806342842e0e1461022f57806355f804b31461024b5780636352211e146102675780636a6278421461029757806370a08231146102b3578063715018a6146102e357610158565b806301ffc9a71461015d57806306fdde031461018d578063081812fc146101ab578063095ea7b3146101db578063144fa6d7146101f757806323b872dd14610213575b600080fd5b61017760048036038101906101729190612254565b61045b565b604051610184919061229c565b60405180910390f35b61019561053d565b6040516101a29190612347565b60405180910390f35b6101c560048036038101906101c0919061239f565b6105cf565b6040516101d2919061240d565b60405180910390f35b6101f560048036038101906101f09190612454565b610615565b005b610211600480360381019061020c9190612494565b61072c565b005b61022d600480360381019061022891906124c1565b610778565b005b610249600480360381019061024491906124c1565b6107d8565b005b61026560048036038101906102609190612649565b6107f8565b005b610281600480360381019061027c919061239f565b61080c565b60405161028e919061240d565b60405180910390f35b6102b160048036038101906102ac9190612494565b610892565b005b6102cd60048036038101906102c89190612494565b6108a6565b6040516102da91906126a1565b60405180910390f35b6102eb61095d565b005b6102f5610971565b60405161030291906126a1565b60405180910390f35b610313610a14565b604051610320919061240d565b60405180910390f35b610343600480360381019061033e919061239f565b610a3e565b005b61034d610a50565b60405161035a9190612347565b60405180910390f35b61036b610ae2565b60405161037891906126a1565b60405180910390f35b61039b600480360381019061039691906126e8565b610ae8565b005b6103b760048036038101906103b2919061239f565b610afe565b005b6103d360048036038101906103ce91906127c9565b610b9e565b005b6103ef60048036038101906103ea919061239f565b610c00565b6040516103fc9190612347565b60405180910390f35b61040d610c68565b005b6104296004803603810190610424919061284c565b610d67565b604051610436919061229c565b60405180910390f35b61045960048036038101906104549190612494565b610dfb565b005b60007f80ac58cd000000000000000000000000000000000000000000000000000000007bffffffffffffffffffffffffffffffffffffffffffffffffffffffff1916827bffffffffffffffffffffffffffffffffffffffffffffffffffffffff1916148061052657507f5b5e139f000000000000000000000000000000000000000000000000000000007bffffffffffffffffffffffffffffffffffffffffffffffffffffffff1916827bffffffffffffffffffffffffffffffffffffffffffffffffffffffff1916145b80610536575061053582610e7e565b5b9050919050565b60606000805461054c906128bb565b80601f0160208091040260200160405190810160405280929190818152602001828054610578906128bb565b80156105c55780601f1061059a576101008083540402835291602001916105c5565b820191906000526020600020905b8154815290600101906020018083116105a857829003601f168201915b5050505050905090565b60006105da82610ee8565b6004600083815260200190815260200160002060009054906101000a900473ffffffffffffffffffffffffffffffffffffffff169050919050565b60006106208261080c565b90508073ffffffffffffffffffffffffffffffffffffffff168373ffffffffffffffffffffffffffffffffffffffff1603610690576040517f08c379a00000000000000000000000000000000000000000000000000000000081526004016106879061295e565b60405180910390fd5b8073ffffffffffffffffffffffffffffffffffffffff166106af610f33565b73ffffffffffffffffffffffffffffffffffffffff1614806106de57506106dd816106d8610f33565b610d67565b5b61071d576040517f08c379a0000000000000000000000000000000000000000000000000000000008152600401610714906129f0565b60405180910390fd5b6107278383610f3b565b505050565b610734610ff4565b80600760006101000a81548173ffffffffffffffffffffffffffffffffffffffff021916908373ffffffffffffffffffffffffffffffffffffffff16021790555050565b610789610783610f33565b82611072565b6107c8576040517f08c379a00000000000000000000000000000000000000000000000000000000081526004016107bf90612a82565b60405180910390fd5b6107d3838383611107565b505050565b6107f383838360405180602001604052806000815250610b9e565b505050565b610800610ff4565b61080981611400565b50565b60008061081883611413565b9050600073ffffffffffffffffffffffffffffffffffffffff168173ffffffffffffffffffffffffffffffffffffffff1603610889576040517f08c379a000000000000000000000000000000000000000000000000000000000815260040161088090612aee565b60405180910390fd5b80915050919050565b61089a610ff4565b6108a381611450565b50565b60008073ffffffffffffffffffffffffffffffffffffffff168273ffffffffffffffffffffffffffffffffffffffff1603610916576040517f08c379a000000000000000000000000000000000000000000000000000000000815260040161090d90612b80565b60405180910390fd5b600360008373ffffffffffffffffffffffffffffffffffffffff1673ffffffffffffffffffffffffffffffffffffffff168152602001908152602001600020549050919050565b610965610ff4565b61096f6000611476565b565b6000600760009054906101000a900473ffffffffffffffffffffffffffffffffffffffff1673ffffffffffffffffffffffffffffffffffffffff166370a08231306040518263ffffffff1660e01b81526004016109ce919061240d565b602060405180830381865afa1580156109eb573d6000803e3d6000fd5b505050506040513d601f19601f82011682018060405250810190610a0f9190612bb5565b905090565b6000600660009054906101000a900473ffffffffffffffffffffffffffffffffffffffff16905090565b610a46610ff4565b8060098190555050565b606060018054610a5f906128bb565b80601f0160208091040260200160405190810160405280929190818152602001828054610a8b906128bb565b8015610ad85780601f10610aad57610100808354040283529160200191610ad8565b820191906000526020600020905b815481529060010190602001808311610abb57829003601f168201915b5050505050905090565b60095481565b610afa610af3610f33565b838361153c565b5050565b600954811015610b43576040517f08c379a0000000000000000000000000000000000000000000000000000000008152600401610b3a90612c2e565b60405180910390fd5b610b92333083600760009054906101000a900473ffffffffffffffffffffffffffffffffffffffff1673ffffffffffffffffffffffffffffffffffffffff166116a8909392919063ffffffff16565b610b9b33611450565b50565b610baf610ba9610f33565b83611072565b610bee576040517f08c379a0000000000000000000000000000000000000000000000000000000008152600401610be590612a82565b60405180910390fd5b610bfa84848484611731565b50505050565b6060610c0b82610ee8565b6000610c1561178d565b90506000815111610c355760405180602001604052806000815250610c60565b80610c3f8461181f565b604051602001610c50929190612c8a565b6040516020818303038152906040525b915050919050565b610c70610ff4565b6000600760009054906101000a900473ffffffffffffffffffffffffffffffffffffffff1673ffffffffffffffffffffffffffffffffffffffff166370a08231306040518263ffffffff1660e01b8152600401610ccd919061240d565b602060405180830381865afa158015610cea573d6000803e3d6000fd5b505050506040513d601f19601f82011682018060405250810190610d0e9190612bb5565b9050610d64610d1b610a14565b82600760009054906101000a900473ffffffffffffffffffffffffffffffffffffffff1673ffffffffffffffffffffffffffffffffffffffff166118ed9092919063ffffffff16565b50565b6000600560008473ffffffffffffffffffffffffffffffffffffffff1673ffffffffffffffffffffffffffffffffffffffff16815260200190815260200160002060008373ffffffffffffffffffffffffffffffffffffffff1673ffffffffffffffffffffffffffffffffffffffff16815260200190815260200160002060009054906101000a900460ff16905092915050565b610e03610ff4565b600073ffffffffffffffffffffffffffffffffffffffff168173ffffffffffffffffffffffffffffffffffffffff1603610e72576040517f08c379a0000000000000000000000000000000000000000000000000000000008152600401610e6990612d20565b60405180910390fd5b610e7b81611476565b50565b60007f01ffc9a7000000000000000000000000000000000000000000000000000000007bffffffffffffffffffffffffffffffffffffffffffffffffffffffff1916827bffffffffffffffffffffffffffffffffffffffffffffffffffffffff1916149050919050565b610ef181611973565b610f30576040517f08c379a0000000000000000000000000000000000000000000000000000000008152600401610f2790612aee565b60405180910390fd5b50565b600033905090565b816004600083815260200190815260200160002060006101000a81548173ffffffffffffffffffffffffffffffffffffffff021916908373ffffffffffffffffffffffffffffffffffffffff160217905550808273ffffffffffffffffffffffffffffffffffffffff16610fae8361080c565b73ffffffffffffffffffffffffffffffffffffffff167f8c5be1e5ebec7d5bd14f71427d1e84f3dd0314c0f7b2291e5b200ac8c7c3b92560405160405180910390a45050565b610ffc610f33565b73ffffffffffffffffffffffffffffffffffffffff1661101a610a14565b73ffffffffffffffffffffffffffffffffffffffff1614611070576040517f08c379a000000000000000000000000000000000000000000000000000000000815260040161106790612d8c565b60405180910390fd5b565b60008061107e8361080c565b90508073ffffffffffffffffffffffffffffffffffffffff168473ffffffffffffffffffffffffffffffffffffffff1614806110c057506110bf8185610d67565b5b806110fe57508373ffffffffffffffffffffffffffffffffffffffff166110e6846105cf565b73ffffffffffffffffffffffffffffffffffffffff16145b91505092915050565b8273ffffffffffffffffffffffffffffffffffffffff166111278261080c565b73ffffffffffffffffffffffffffffffffffffffff161461117d576040517f08c379a000000000000000000000000000000000000000000000000000000000815260040161117490612e1e565b60405180910390fd5b600073ffffffffffffffffffffffffffffffffffffffff168273ffffffffffffffffffffffffffffffffffffffff16036111ec576040517f08c379a00000000000000000000000000000000000000000000000000000000081526004016111e390612eb0565b60405180910390fd5b6111f983838360016119b4565b8273ffffffffffffffffffffffffffffffffffffffff166112198261080c565b73ffffffffffffffffffffffffffffffffffffffff161461126f576040517f08c379a000000000000000000000000000000000000000000000000000000000815260040161126690612e1e565b60405180910390fd5b6004600082815260200190815260200160002060006101000a81549073ffffffffffffffffffffffffffffffffffffffff02191690556001600360008573ffffffffffffffffffffffffffffffffffffffff1673ffffffffffffffffffffffffffffffffffffffff168152602001908152602001600020600082825403925050819055506001600360008473ffffffffffffffffffffffffffffffffffffffff1673ffffffffffffffffffffffffffffffffffffffff16815260200190815260200160002060008282540192505081905550816002600083815260200190815260200160002060006101000a81548173ffffffffffffffffffffffffffffffffffffffff021916908373ffffffffffffffffffffffffffffffffffffffff160217905550808273ffffffffffffffffffffffffffffffffffffffff168473ffffffffffffffffffffffffffffffffffffffff167fddf252ad1be2c89b69c2b068fc378daa952ba7f163c4a11628f55a4df523b3ef60405160405180910390a46113fb83838360016119ba565b505050565b80600a908161140f919061307c565b5050565b60006002600083815260200190815260200160002060009054906101000a900473ffffffffffffffffffffffffffffffffffffffff169050919050565b600061145c60086119c0565b905061146860086119ce565b61147282826119e4565b5050565b6000600660009054906101000a900473ffffffffffffffffffffffffffffffffffffffff16905081600660006101000a81548173ffffffffffffffffffffffffffffffffffffffff021916908373ffffffffffffffffffffffffffffffffffffffff1602179055508173ffffffffffffffffffffffffffffffffffffffff168173ffffffffffffffffffffffffffffffffffffffff167f8be0079c531659141344cd1fd0a4f28419497f9722a3daafe3b4186f6b6457e060405160405180910390a35050565b8173ffffffffffffffffffffffffffffffffffffffff168373ffffffffffffffffffffffffffffffffffffffff16036115aa576040517f08c379a00000000000000000000000000000000000000000000000000000000081526004016115a19061319a565b60405180910390fd5b80600560008573ffffffffffffffffffffffffffffffffffffffff1673ffffffffffffffffffffffffffffffffffffffff16815260200190815260200160002060008473ffffffffffffffffffffffffffffffffffffffff1673ffffffffffffffffffffffffffffffffffffffff16815260200190815260200160002060006101000a81548160ff0219169083151502179055508173ffffffffffffffffffffffffffffffffffffffff168373ffffffffffffffffffffffffffffffffffffffff167f17307eab39ab6107e8899845ad3d59bd9653f200f220920489ca2b5937696c318360405161169b919061229c565b60405180910390a3505050565b61172b846323b872dd60e01b8585856040516024016116c9939291906131ba565b604051602081830303815290604052907bffffffffffffffffffffffffffffffffffffffffffffffffffffffff19166020820180517bffffffffffffffffffffffffffffffffffffffffffffffffffffffff8381831617835250505050611a02565b50505050565b61173c848484611107565b61174884848484611ac9565b611787576040517f08c379a000000000000000000000000000000000000000000000000000000000815260040161177e90613263565b60405180910390fd5b50505050565b6060600a805461179c906128bb565b80601f01602080910402602001604051908101604052809291908181526020018280546117c8906128bb565b80156118155780601f106117ea57610100808354040283529160200191611815565b820191906000526020600020905b8154815290600101906020018083116117f857829003601f168201915b5050505050905090565b60606000600161182e84611c50565b01905060008167ffffffffffffffff81111561184d5761184c61251e565b5b6040519080825280601f01601f19166020018201604052801561187f5781602001600182028036833780820191505090505b509050600082602001820190505b6001156118e2578080600190039150507f3031323334353637383961626364656600000000000000000000000000000000600a86061a8153600a85816118d6576118d5613283565b5b0494506000850361188d575b819350505050919050565b61196e8363a9059cbb60e01b848460405160240161190c9291906132b2565b604051602081830303815290604052907bffffffffffffffffffffffffffffffffffffffffffffffffffffffff19166020820180517bffffffffffffffffffffffffffffffffffffffffffffffffffffffff8381831617835250505050611a02565b505050565b60008073ffffffffffffffffffffffffffffffffffffffff1661199583611413565b73ffffffffffffffffffffffffffffffffffffffff1614159050919050565b50505050565b50505050565b600081600001549050919050565b6001816000016000828254019250508190555050565b6119fe828260405180602001604052806000815250611da3565b5050565b6000611a64826040518060400160405280602081526020017f5361666545524332303a206c6f772d6c6576656c2063616c6c206661696c65648152508573ffffffffffffffffffffffffffffffffffffffff16611dfe9092919063ffffffff16565b9050600081511115611ac45780806020019051810190611a8491906132f0565b611ac3576040517f08c379a0000000000000000000000000000000000000000000000000000000008152600401611aba9061338f565b60405180910390fd5b5b505050565b6000611aea8473ffffffffffffffffffffffffffffffffffffffff16611e16565b15611c43578373ffffffffffffffffffffffffffffffffffffffff1663150b7a02611b13610f33565b8786866040518563ffffffff1660e01b8152600401611b359493929190613404565b6020604051808303816000875af1925050508015611b7157506040513d601f19601f82011682018060405250810190611b6e9190613465565b60015b611bf3573d8060008114611ba1576040519150601f19603f3d011682016040523d82523d6000602084013e611ba6565b606091505b506000815103611beb576040517f08c379a0000000000000000000000000000000000000000000000000000000008152600401611be290613263565b60405180910390fd5b805181602001fd5b63150b7a0260e01b7bffffffffffffffffffffffffffffffffffffffffffffffffffffffff1916817bffffffffffffffffffffffffffffffffffffffffffffffffffffffff191614915050611c48565b600190505b949350505050565b600080600090507a184f03e93ff9f4daa797ed6e38ed64bf6a1f0100000000000000008310611cae577a184f03e93ff9f4daa797ed6e38ed64bf6a1f0100000000000000008381611ca457611ca3613283565b5b0492506040810190505b6d04ee2d6d415b85acef81000000008310611ceb576d04ee2d6d415b85acef81000000008381611ce157611ce0613283565b5b0492506020810190505b662386f26fc100008310611d1a57662386f26fc100008381611d1057611d0f613283565b5b0492506010810190505b6305f5e1008310611d43576305f5e1008381611d3957611d38613283565b5b0492506008810190505b6127108310611d68576127108381611d5e57611d5d613283565b5b0492506004810190505b60648310611d8b5760648381611d8157611d80613283565b5b0492506002810190505b600a8310611d9a576001810190505b80915050919050565b611dad8383611e39565b611dba6000848484611ac9565b611df9576040517f08c379a0000000000000000000000000000000000000000000000000000000008152600401611df090613263565b60405180910390fd5b505050565b6060611e0d8484600085612056565b90509392505050565b6000808273ffffffffffffffffffffffffffffffffffffffff163b119050919050565b600073ffffffffffffffffffffffffffffffffffffffff168273ffffffffffffffffffffffffffffffffffffffff1603611ea8576040517f08c379a0000000000000000000000000000000000000000000000000000000008152600401611e9f906134de565b60405180910390fd5b611eb181611973565b15611ef1576040517f08c379a0000000000000000000000000000000000000000000000000000000008152600401611ee89061354a565b60405180910390fd5b611eff6000838360016119b4565b611f0881611973565b15611f48576040517f08c379a0000000000000000000000000000000000000000000000000000000008152600401611f3f9061354a565b60405180910390fd5b6001600360008473ffffffffffffffffffffffffffffffffffffffff1673ffffffffffffffffffffffffffffffffffffffff16815260200190815260200160002060008282540192505081905550816002600083815260200190815260200160002060006101000a81548173ffffffffffffffffffffffffffffffffffffffff021916908373ffffffffffffffffffffffffffffffffffffffff160217905550808273ffffffffffffffffffffffffffffffffffffffff16600073ffffffffffffffffffffffffffffffffffffffff167fddf252ad1be2c89b69c2b068fc378daa952ba7f163c4a11628f55a4df523b3ef60405160405180910390a46120526000838360016119ba565b5050565b60608247101561209b576040517f08c379a0000000000000000000000000000000000000000000000000000000008152600401612092906135dc565b60405180910390fd5b6000808673ffffffffffffffffffffffffffffffffffffffff1685876040516120c49190613638565b60006040518083038185875af1925050503d8060008114612101576040519150601f19603f3d011682016040523d82523d6000602084013e612106565b606091505b509150915061211787838387612123565b92505050949350505050565b6060831561218557600083510361217d5761213d85611e16565b61217c576040517f08c379a00000000000000000000000000000000000000000000000000000000081526004016121739061369b565b60405180910390fd5b5b829050612190565b61218f8383612198565b5b949350505050565b6000825111156121ab5781518083602001fd5b806040517f08c379a00000000000000000000000000000000000000000000000000000000081526004016121df9190612347565b60405180910390fd5b6000604051905090565b600080fd5b600080fd5b60007fffffffff0000000000000000000000000000000000000000000000000000000082169050919050565b612231816121fc565b811461223c57600080fd5b50565b60008135905061224e81612228565b92915050565b60006020828403121561226a576122696121f2565b5b60006122788482850161223f565b91505092915050565b60008115159050919050565b61229681612281565b82525050565b60006020820190506122b1600083018461228d565b92915050565b600081519050919050565b600082825260208201905092915050565b60005b838110156122f15780820151818401526020810190506122d6565b60008484015250505050565b6000601f19601f8301169050919050565b6000612319826122b7565b61232381856122c2565b93506123338185602086016122d3565b61233c816122fd565b840191505092915050565b60006020820190508181036000830152612361818461230e565b905092915050565b6000819050919050565b61237c81612369565b811461238757600080fd5b50565b60008135905061239981612373565b92915050565b6000602082840312156123b5576123b46121f2565b5b60006123c38482850161238a565b91505092915050565b600073ffffffffffffffffffffffffffffffffffffffff82169050919050565b60006123f7826123cc565b9050919050565b612407816123ec565b82525050565b600060208201905061242260008301846123fe565b92915050565b612431816123ec565b811461243c57600080fd5b50565b60008135905061244e81612428565b92915050565b6000806040838503121561246b5761246a6121f2565b5b60006124798582860161243f565b925050602061248a8582860161238a565b9150509250929050565b6000602082840312156124aa576124a96121f2565b5b60006124b88482850161243f565b91505092915050565b6000806000606084860312156124da576124d96121f2565b5b60006124e88682870161243f565b93505060206124f98682870161243f565b925050604061250a8682870161238a565b9150509250925092565b600080fd5b600080fd5b7f4e487b7100000000000000000000000000000000000000000000000000000000600052604160045260246000fd5b612556826122fd565b810181811067ffffffffffffffff821117156125755761257461251e565b5b80604052505050565b60006125886121e8565b9050612594828261254d565b919050565b600067ffffffffffffffff8211156125b4576125b361251e565b5b6125bd826122fd565b9050602081019050919050565b82818337600083830152505050565b60006125ec6125e784612599565b61257e565b90508281526020810184848401111561260857612607612519565b5b6126138482856125ca565b509392505050565b600082601f8301126126305761262f612514565b5b81356126408482602086016125d9565b91505092915050565b60006020828403121561265f5761265e6121f2565b5b600082013567ffffffffffffffff81111561267d5761267c6121f7565b5b6126898482850161261b565b91505092915050565b61269b81612369565b82525050565b60006020820190506126b66000830184612692565b92915050565b6126c581612281565b81146126d057600080fd5b50565b6000813590506126e2816126bc565b92915050565b600080604083850312156126ff576126fe6121f2565b5b600061270d8582860161243f565b925050602061271e858286016126d3565b9150509250929050565b600067ffffffffffffffff8211156127435761274261251e565b5b61274c826122fd565b9050602081019050919050565b600061276c61276784612728565b61257e565b90508281526020810184848401111561278857612787612519565b5b6127938482856125ca565b509392505050565b600082601f8301126127b0576127af612514565b5b81356127c0848260208601612759565b91505092915050565b600080600080608085870312156127e3576127e26121f2565b5b60006127f18782880161243f565b94505060206128028782880161243f565b93505060406128138782880161238a565b925050606085013567ffffffffffffffff811115612834576128336121f7565b5b6128408782880161279b565b91505092959194509250565b60008060408385031215612863576128626121f2565b5b60006128718582860161243f565b92505060206128828582860161243f565b9150509250929050565b7f4e487b7100000000000000000000000000000000000000000000000000000000600052602260045260246000fd5b600060028204905060018216806128d357607f821691505b6020821081036128e6576128e561288c565b5b50919050565b7f4552433732313a20617070726f76616c20746f2063757272656e74206f776e6560008201527f7200000000000000000000000000000000000000000000000000000000000000602082015250565b60006129486021836122c2565b9150612953826128ec565b604082019050919050565b600060208201905081810360008301526129778161293b565b9050919050565b7f4552433732313a20617070726f76652063616c6c6572206973206e6f7420746f60008201527f6b656e206f776e6572206f7220617070726f76656420666f7220616c6c000000602082015250565b60006129da603d836122c2565b91506129e58261297e565b604082019050919050565b60006020820190508181036000830152612a09816129cd565b9050919050565b7f4552433732313a2063616c6c6572206973206e6f7420746f6b656e206f776e6560008201527f72206f7220617070726f76656400000000000000000000000000000000000000602082015250565b6000612a6c602d836122c2565b9150612a7782612a10565b604082019050919050565b60006020820190508181036000830152612a9b81612a5f565b9050919050565b7f4552433732313a20696e76616c696420746f6b656e2049440000000000000000600082015250565b6000612ad86018836122c2565b9150612ae382612aa2565b602082019050919050565b60006020820190508181036000830152612b0781612acb565b9050919050565b7f4552433732313a2061646472657373207a65726f206973206e6f74206120766160008201527f6c6964206f776e65720000000000000000000000000000000000000000000000602082015250565b6000612b6a6029836122c2565b9150612b7582612b0e565b604082019050919050565b60006020820190508181036000830152612b9981612b5d565b9050919050565b600081519050612baf81612373565b92915050565b600060208284031215612bcb57612bca6121f2565b5b6000612bd984828501612ba0565b91505092915050565b7f546f6b656e20616d6f756e74206572726f720000000000000000000000000000600082015250565b6000612c186012836122c2565b9150612c2382612be2565b602082019050919050565b60006020820190508181036000830152612c4781612c0b565b9050919050565b600081905092915050565b6000612c64826122b7565b612c6e8185612c4e565b9350612c7e8185602086016122d3565b80840191505092915050565b6000612c968285612c59565b9150612ca28284612c59565b91508190509392505050565b7f4f776e61626c653a206e6577206f776e657220697320746865207a65726f206160008201527f6464726573730000000000000000000000000000000000000000000000000000602082015250565b6000612d0a6026836122c2565b9150612d1582612cae565b604082019050919050565b60006020820190508181036000830152612d3981612cfd565b9050919050565b7f4f776e61626c653a2063616c6c6572206973206e6f7420746865206f776e6572600082015250565b6000612d766020836122c2565b9150612d8182612d40565b602082019050919050565b60006020820190508181036000830152612da581612d69565b9050919050565b7f4552433732313a207472616e736665722066726f6d20696e636f72726563742060008201527f6f776e6572000000000000000000000000000000000000000000000000000000602082015250565b6000612e086025836122c2565b9150612e1382612dac565b604082019050919050565b60006020820190508181036000830152612e3781612dfb565b9050919050565b7f4552433732313a207472616e7366657220746f20746865207a65726f2061646460008201527f7265737300000000000000000000000000000000000000000000000000000000602082015250565b6000612e9a6024836122c2565b9150612ea582612e3e565b604082019050919050565b60006020820190508181036000830152612ec981612e8d565b9050919050565b60008190508160005260206000209050919050565b60006020601f8301049050919050565b600082821b905092915050565b600060088302612f327fffffffffffffffffffffffffffffffffffffffffffffffffffffffffffffffff82612ef5565b612f3c8683612ef5565b95508019841693508086168417925050509392505050565b6000819050919050565b6000612f79612f74612f6f84612369565b612f54565b612369565b9050919050565b6000819050919050565b612f9383612f5e565b612fa7612f9f82612f80565b848454612f02565b825550505050565b600090565b612fbc612faf565b612fc7818484612f8a565b505050565b5b81811015612feb57612fe0600082612fb4565b600181019050612fcd565b5050565b601f8211156130305761300181612ed0565b61300a84612ee5565b81016020851015613019578190505b61302d61302585612ee5565b830182612fcc565b50505b505050565b600082821c905092915050565b600061305360001984600802613035565b1980831691505092915050565b600061306c8383613042565b9150826002028217905092915050565b613085826122b7565b67ffffffffffffffff81111561309e5761309d61251e565b5b6130a882546128bb565b6130b3828285612fef565b600060209050601f8311600181146130e657600084156130d4578287015190505b6130de8582613060565b865550613146565b601f1984166130f486612ed0565b60005b8281101561311c578489015182556001820191506020850194506020810190506130f7565b868310156131395784890151613135601f891682613042565b8355505b6001600288020188555050505b505050505050565b7f4552433732313a20617070726f766520746f2063616c6c657200000000000000600082015250565b60006131846019836122c2565b915061318f8261314e565b602082019050919050565b600060208201905081810360008301526131b381613177565b9050919050565b60006060820190506131cf60008301866123fe565b6131dc60208301856123fe565b6131e96040830184612692565b949350505050565b7f4552433732313a207472616e7366657220746f206e6f6e20455243373231526560008201527f63656976657220696d706c656d656e7465720000000000000000000000000000602082015250565b600061324d6032836122c2565b9150613258826131f1565b604082019050919050565b6000602082019050818103600083015261327c81613240565b9050919050565b7f4e487b7100000000000000000000000000000000000000000000000000000000600052601260045260246000fd5b60006040820190506132c760008301856123fe565b6132d46020830184612692565b9392505050565b6000815190506132ea816126bc565b92915050565b600060208284031215613306576133056121f2565b5b6000613314848285016132db565b91505092915050565b7f5361666545524332303a204552433230206f7065726174696f6e20646964206e60008201527f6f74207375636365656400000000000000000000000000000000000000000000602082015250565b6000613379602a836122c2565b91506133848261331d565b604082019050919050565b600060208201905081810360008301526133a88161336c565b9050919050565b600081519050919050565b600082825260208201905092915050565b60006133d6826133af565b6133e081856133ba565b93506133f08185602086016122d3565b6133f9816122fd565b840191505092915050565b600060808201905061341960008301876123fe565b61342660208301866123fe565b6134336040830185612692565b818103606083015261344581846133cb565b905095945050505050565b60008151905061345f81612228565b92915050565b60006020828403121561347b5761347a6121f2565b5b600061348984828501613450565b91505092915050565b7f4552433732313a206d696e7420746f20746865207a65726f2061646472657373600082015250565b60006134c86020836122c2565b91506134d382613492565b602082019050919050565b600060208201905081810360008301526134f7816134bb565b9050919050565b7f4552433732313a20746f6b656e20616c7265616479206d696e74656400000000600082015250565b6000613534601c836122c2565b915061353f826134fe565b602082019050919050565b6000602082019050818103600083015261356381613527565b9050919050565b7f416464726573733a20696e73756666696369656e742062616c616e636520666f60008201527f722063616c6c0000000000000000000000000000000000000000000000000000602082015250565b60006135c66026836122c2565b91506135d18261356a565b604082019050919050565b600060208201905081810360008301526135f5816135b9565b9050919050565b600081905092915050565b6000613612826133af565b61361c81856135fc565b935061362c8185602086016122d3565b80840191505092915050565b60006136448284613607565b915081905092915050565b7f416464726573733a2063616c6c20746f206e6f6e2d636f6e7472616374000000600082015250565b6000613685601d836122c2565b91506136908261364f565b602082019050919050565b600060208201905081810360008301526136b481613678565b905091905056fea2646970667358221220b1e76d3e8993f520d1649bc0f23c185872dd899b9e01ab0e2e90893ed3e87ed764736f6c63430008130033697066733a2f2f516d614b59596b4278486d67617734744c4b6a5a394a4a573147636a734463646b33504c5459594d5342674d31732f",
  "linkReferences": {},
  "deployedLinkReferences": {}
}