{
  "_format": "hh-sol-artifact-1",
  "contractName": "DeMarketBox",
  "sourceName": "contracts/DeMarketBox.sol",
  "abi": [
    {
      "inputs": [
        {
          "internalType": "address",
          "name": "_lockAddr",
          "type": "address"
        }
      ],
      "stateMutability": "nonpayable",
      "type": "constructor"
    },
    {
      "anonymous": false,
      "inputs": [
        {
          "indexed": true,
          "internalType": "address",
          "name": "sender",
          "type": "address"
        },
        {
          "indexed": true,
          "internalType": "address",
          "name": "recipient",
          "type": "address"
        },
        {
          "indexed": false,
          "internalType": "string",
          "name": "BoxType",
          "type": "string"
        },
        {
          "indexed": false,
          "internalType": "uint256",
          "name": "numberOfBoxs",
          "type": "uint256"
        }
      ],
      "name": "BoxGifted",
      "type": "event"
    },
    {
      "anonymous": false,
      "inputs": [
        {
          "indexed": true,
          "internalType": "address",
          "name": "user",
          "type": "address"
        },
        {
          "indexed": false,
          "internalType": "string",
          "name": "BoxType",
          "type": "string"
        },
        {
          "indexed": false,
          "internalType": "uint256",
          "name": "numberOfBoxs",
          "type": "uint256"
        }
      ],
      "name": "BoxMinted",
      "type": "event"
    },
    {
      "anonymous": false,
      "inputs": [
        {
          "indexed": false,
          "internalType": "string",
          "name": "BoxType",
          "type": "string"
        },
        {
          "indexed": false,
          "internalType": "string",
          "name": "BoxName",
          "type": "string"
        },
        {
          "indexed": false,
          "internalType": "address",
          "name": "tokenAddress",
          "type": "address"
        },
        {
          "indexed": false,
          "internalType": "uint256",
          "name": "price",
          "type": "uint256"
        },
        {
          "indexed": false,
          "internalType": "uint256",
          "name": "maxPrize",
          "type": "uint256"
        },
        {
          "indexed": false,
          "internalType": "uint256",
          "name": "maxPrizeProbability",
          "type": "uint256"
        },
        {
          "indexed": false,
          "internalType": "uint256",
          "name": "winningProbability",
          "type": "uint256"
        }
      ],
      "name": "BoxTypeAdded",
      "type": "event"
    },
    {
      "anonymous": false,
      "inputs": [
        {
          "indexed": false,
          "internalType": "string",
          "name": "BoxType",
          "type": "string"
        }
      ],
      "name": "BoxTypeRemoved",
      "type": "event"
    },
    {
      "anonymous": false,
      "inputs": [
        {
          "indexed": true,
          "internalType": "address",
          "name": "previousOwner",
          "type": "address"
        },
        {
          "indexed": true,
          "internalType": "address",
          "name": "newOwner",
          "type": "address"
        }
      ],
      "name": "OwnershipTransferred",
      "type": "event"
    },
    {
      "anonymous": false,
      "inputs": [
        {
          "indexed": true,
          "internalType": "address",
          "name": "user",
          "type": "address"
        },
        {
          "indexed": false,
          "internalType": "string",
          "name": "BoxType",
          "type": "string"
        },
        {
          "indexed": false,
          "internalType": "uint256",
          "name": "prize",
          "type": "uint256"
        }
      ],
      "name": "PrizeClaimed",
      "type": "event"
    },
    {
      "inputs": [
        {
          "internalType": "address",
          "name": "",
          "type": "address"
        }
      ],
      "name": "BoxBalances",
      "outputs": [
        {
          "internalType": "uint256",
          "name": "",
          "type": "uint256"
        }
      ],
      "stateMutability": "view",
      "type": "function"
    },
    {
      "inputs": [
        {
          "internalType": "address",
          "name": "",
          "type": "address"
        },
        {
          "internalType": "string",
          "name": "",
          "type": "string"
        }
      ],
      "name": "BoxCounts",
      "outputs": [
        {
          "internalType": "uint256",
          "name": "",
          "type": "uint256"
        }
      ],
      "stateMutability": "view",
      "type": "function"
    },
    {
      "inputs": [
        {
          "internalType": "string",
          "name": "BoxType",
          "type": "string"
        },
        {
          "internalType": "string",
          "name": "BoxName",
          "type": "string"
        },
        {
          "internalType": "address",
          "name": "tokenAddress",
          "type": "address"
        },
        {
          "internalType": "uint256",
          "name": "price",
          "type": "uint256"
        },
        {
          "internalType": "uint256",
          "name": "maxPrize",
          "type": "uint256"
        },
        {
          "internalType": "uint256",
          "name": "maxPrizeProbability",
          "type": "uint256"
        },
        {
          "internalType": "uint256",
          "name": "winningProbability",
          "type": "uint256"
        }
      ],
      "name": "addBoxType",
      "outputs": [],
      "stateMutability": "nonpayable",
      "type": "function"
    },
    {
      "inputs": [
        {
          "internalType": "uint256",
          "name": "",
          "type": "uint256"
        }
      ],
      "name": "availableBoxs",
      "outputs": [
        {
          "internalType": "string",
          "name": "BoxType",
          "type": "string"
        },
        {
          "internalType": "string",
          "name": "BoxName",
          "type": "string"
        },
        {
          "internalType": "address",
          "name": "tokenAddress",
          "type": "address"
        },
        {
          "internalType": "uint256",
          "name": "price",
          "type": "uint256"
        },
        {
          "internalType": "uint256",
          "name": "maxPrize",
          "type": "uint256"
        },
        {
          "internalType": "uint256",
          "name": "maxPrizeProbability",
          "type": "uint256"
        },
        {
          "internalType": "uint256",
          "name": "winningProbability",
          "type": "uint256"
        }
      ],
      "stateMutability": "view",
      "type": "function"
    },
    {
      "inputs": [
        {
          "internalType": "bool",
          "name": "newStatus",
          "type": "bool"
        }
      ],
      "name": "changeIsOpen",
      "outputs": [],
      "stateMutability": "nonpayable",
      "type": "function"
    },
    {
      "inputs": [
        {
          "internalType": "address",
          "name": "recipient",
          "type": "address"
        },
        {
          "internalType": "string",
          "name": "BoxType",
          "type": "string"
        },
        {
          "internalType": "uint256",
          "name": "numberOfBoxs",
          "type": "uint256"
        }
      ],
      "name": "giftBoxs",
      "outputs": [],
      "stateMutability": "nonpayable",
      "type": "function"
    },
    {
      "inputs": [],
      "name": "isOk",
      "outputs": [
        {
          "internalType": "bool",
          "name": "",
          "type": "bool"
        }
      ],
      "stateMutability": "view",
      "type": "function"
    },
    {
      "inputs": [],
      "name": "lockAddr",
      "outputs": [
        {
          "internalType": "address",
          "name": "",
          "type": "address"
        }
      ],
      "stateMutability": "view",
      "type": "function"
    },
    {
      "inputs": [
        {
          "internalType": "string",
          "name": "BoxType",
          "type": "string"
        },
        {
          "internalType": "uint256",
          "name": "numberOfBoxs",
          "type": "uint256"
        }
      ],
      "name": "mintBoxs",
      "outputs": [],
      "stateMutability": "nonpayable",
      "type": "function"
    },
    {
      "inputs": [
        {
          "internalType": "string",
          "name": "BoxType",
          "type": "string"
        }
      ],
      "name": "openBox",
      "outputs": [
        {
          "internalType": "uint256",
          "name": "",
          "type": "uint256"
        }
      ],
      "stateMutability": "nonpayable",
      "type": "function"
    },
    {
      "inputs": [],
      "name": "owner",
      "outputs": [
        {
          "internalType": "address",
          "name": "",
          "type": "address"
        }
      ],
      "stateMutability": "view",
      "type": "function"
    },
    {
      "inputs": [],
      "name": "profitShare",
      "outputs": [
        {
          "internalType": "uint256",
          "name": "",
          "type": "uint256"
        }
      ],
      "stateMutability": "view",
      "type": "function"
    },
    {
      "inputs": [
        {
          "internalType": "string",
          "name": "BoxType",
          "type": "string"
        }
      ],
      "name": "removeBoxType",
      "outputs": [],
      "stateMutability": "nonpayable",
      "type": "function"
    },
    {
      "inputs": [],
      "name": "renounceOwnership",
      "outputs": [],
      "stateMutability": "nonpayable",
      "type": "function"
    },
    {
      "inputs": [
        {
          "internalType": "uint256",
          "name": "newProfitShare",
          "type": "uint256"
        }
      ],
      "name": "setProfitShare",
      "outputs": [],
      "stateMutability": "nonpayable",
      "type": "function"
    },
    {
      "inputs": [
        {
          "internalType": "address",
          "name": "",
          "type": "address"
        }
      ],
      "name": "total",
      "outputs": [
        {
          "internalType": "uint256",
          "name": "",
          "type": "uint256"
        }
      ],
      "stateMutability": "view",
      "type": "function"
    },
    {
      "inputs": [
        {
          "internalType": "address",
          "name": "newOwner",
          "type": "address"
        }
      ],
      "name": "transferOwnership",
      "outputs": [],
      "stateMutability": "nonpayable",
      "type": "function"
    },
    {
      "inputs": [
        {
          "internalType": "address",
          "name": "tokenAddress",
          "type": "address"
        },
        {
          "internalType": "uint256",
          "name": "amountToWithdraw",
          "type": "uint256"
        }
      ],
      "name": "withdrawProfit",
      "outputs": [],
      "stateMutability": "nonpayable",
      "type": "function"
    }
  ],
  "bytecode": "0x60806040526001600060146101000a81548160ff0219169083151502179055506103e86005553480156200003257600080fd5b50604051620037ef380380620037ef8339818101604052810190620000589190620001f6565b620000786200006c620000c060201b60201c565b620000c860201b60201c565b80600660006101000a81548173ffffffffffffffffffffffffffffffffffffffff021916908373ffffffffffffffffffffffffffffffffffffffff1602179055505062000228565b600033905090565b60008060009054906101000a900473ffffffffffffffffffffffffffffffffffffffff169050816000806101000a81548173ffffffffffffffffffffffffffffffffffffffff021916908373ffffffffffffffffffffffffffffffffffffffff1602179055508173ffffffffffffffffffffffffffffffffffffffff168173ffffffffffffffffffffffffffffffffffffffff167f8be0079c531659141344cd1fd0a4f28419497f9722a3daafe3b4186f6b6457e060405160405180910390a35050565b600080fd5b600073ffffffffffffffffffffffffffffffffffffffff82169050919050565b6000620001be8262000191565b9050919050565b620001d081620001b1565b8114620001dc57600080fd5b50565b600081519050620001f081620001c5565b92915050565b6000602082840312156200020f576200020e6200018c565b5b60006200021f84828501620001df565b91505092915050565b6135b780620002386000396000f3fe608060405234801561001057600080fd5b50600436106101165760003560e01c8063b048f8e7116100a2578063d254b6d411610071578063d254b6d4146102cb578063d35c9a0714610301578063d957dd3c1461031d578063db60eb781461033b578063f2fde38b1461035757610116565b8063b048f8e71461021f578063c8fb5d401461024f578063cf6229301461026b578063d2514e841461029b57610116565b80635c45b7b1116100e95780635c45b7b1146101a1578063715018a6146101bd5780637fdab94e146101c75780638da5cb5b146101e55780639457eb0b1461020357610116565b80631f77525c1461011b5780632752be3a146101375780633e1f55e414610167578063563b6b7114610185575b600080fd5b61013560048036038101906101309190611f98565b610373565b005b610151600480360381019061014c919061207a565b61063e565b60405161015e91906120d6565b60405180910390f35b61016f610d25565b60405161017c91906120d6565b60405180910390f35b61019f600480360381019061019a91906120f1565b610d2b565b005b6101bb60048036038101906101b69190612156565b610d3d565b005b6101c5610d62565b005b6101cf610d76565b6040516101dc9190612192565b60405180910390f35b6101ed610d9c565b6040516101fa9190612192565b60405180910390f35b61021d600480360381019061021891906121ad565b610dc5565b005b61023960048036038101906102349190612362565b611193565b60405161024691906120d6565b60405180910390f35b6102696004803603810190610264919061207a565b6111ce565b005b610285600480360381019061028091906123be565b611454565b60405161029291906120d6565b60405180910390f35b6102b560048036038101906102b091906123be565b61146c565b6040516102c291906120d6565b60405180910390f35b6102e560048036038101906102e091906120f1565b611484565b6040516102f8979695949392919061246a565b60405180910390f35b61031b600480360381019061031691906124e7565b611606565b005b6103256116dc565b6040516103329190612536565b60405180910390f35b61035560048036038101906103509190612551565b6116ef565b005b610371600480360381019061036c91906123be565b611aa0565b005b61037b611b23565b60005b60028054905081101561045257898960405160200161039e9291906125e1565b60405160208183030381529060405280519060200120600282815481106103c8576103c76125fa565b5b90600052602060002090600702016000016040516020016103e99190612721565b604051602081830303815290604052805190602001200361043f576040517f08c379a000000000000000000000000000000000000000000000000000000000815260040161043690612784565b60405180910390fd5b808061044a906127d3565b91505061037e565b5060026040518060e001604052808b8b8080601f016020809104026020016040519081016040528093929190818152602001838380828437600081840152601f19601f82011690508083019250505050505050815260200189898080601f016020809104026020016040519081016040528093929190818152602001838380828437600081840152601f19601f8201169050808301925050505050505081526020018773ffffffffffffffffffffffffffffffffffffffff168152602001868152602001858152602001848152602001838152509080600181540180825580915050600190039060005260206000209060070201600090919091909150600082015181600001908161056491906129b2565b50602082015181600101908161057a91906129b2565b5060408201518160020160006101000a81548173ffffffffffffffffffffffffffffffffffffffff021916908373ffffffffffffffffffffffffffffffffffffffff160217905550606082015181600301556080820151816004015560a0820151816005015560c0820151816006015550507f122689b807d2a916485a316333b25e84b845974a7e3314b4790a227001493b0b89898989898989898960405161062b99989796959493929190612ab1565b60405180910390a1505050505050505050565b600080600360003373ffffffffffffffffffffffffffffffffffffffff1673ffffffffffffffffffffffffffffffffffffffff16815260200190815260200160002054116106c1576040517f08c379a00000000000000000000000000000000000000000000000000000000081526004016106b890612b7e565b60405180910390fd5b6000600460003373ffffffffffffffffffffffffffffffffffffffff1673ffffffffffffffffffffffffffffffffffffffff16815260200190815260200160002084846040516107129291906125e1565b90815260200160405180910390205411610761576040517f08c379a000000000000000000000000000000000000000000000000000000000815260040161075890612bea565b60405180910390fd5b600061076d8484611ba1565b905060028054905081106107b6576040517f08c379a00000000000000000000000000000000000000000000000000000000081526004016107ad90612c56565b60405180910390fd5b6000600282815481106107cc576107cb6125fa565b5b90600052602060002090600702019050600360003373ffffffffffffffffffffffffffffffffffffffff1673ffffffffffffffffffffffffffffffffffffffff168152602001908152602001600020600081548092919061082c90612c76565b9190505550600460003373ffffffffffffffffffffffffffffffffffffffff1673ffffffffffffffffffffffffffffffffffffffff16815260200190815260200160002085856040516108809291906125e1565b9081526020016040518091039020600081548092919061089f90612c76565b9190505550600061271082600301546005546108bb9190612c9f565b6108c59190612d10565b905060008260020160009054906101000a900473ffffffffffffffffffffffffffffffffffffffff16905081600160008560020160009054906101000a900473ffffffffffffffffffffffffffffffffffffffff1673ffffffffffffffffffffffffffffffffffffffff1673ffffffffffffffffffffffffffffffffffffffff16815260200190815260200160002060008282546109639190612d41565b925050819055508073ffffffffffffffffffffffffffffffffffffffff1663a9059cbb600660009054906101000a900473ffffffffffffffffffffffffffffffffffffffff16846040518363ffffffff1660e01b81526004016109c7929190612d75565b6020604051808303816000875af11580156109e6573d6000803e3d6000fd5b505050506040513d601f19601f82011682018060405250810190610a0a9190612db3565b506000424433604051602001610a2293929190612e95565b6040516020818303038152906040528051906020012060001c9050600080856005015483610a509190612edd565b03610a615784600401549050610a7b565b610a7861271083610a729190612edd565b86611c8d565b90505b6000811115610cc157600160008660020160009054906101000a900473ffffffffffffffffffffffffffffffffffffffff1673ffffffffffffffffffffffffffffffffffffffff1673ffffffffffffffffffffffffffffffffffffffff16815260200190815260200160002054811115610b2a576040517f08c379a0000000000000000000000000000000000000000000000000000000008152600401610b2190612f5a565b60405180910390fd5b8273ffffffffffffffffffffffffffffffffffffffff1663a9059cbb33836040518363ffffffff1660e01b8152600401610b65929190612d75565b6020604051808303816000875af1158015610b84573d6000803e3d6000fd5b505050506040513d601f19601f82011682018060405250810190610ba89190612db3565b610be7576040517f08c379a0000000000000000000000000000000000000000000000000000000008152600401610bde90612fc6565b60405180910390fd5b3373ffffffffffffffffffffffffffffffffffffffff167f03d06fcda50bc4063978469e87cebb289177c424afa783ce79e2fd502a0c6c318a8a84604051610c3193929190612fe6565b60405180910390a280600160008760020160009054906101000a900473ffffffffffffffffffffffffffffffffffffffff1673ffffffffffffffffffffffffffffffffffffffff1673ffffffffffffffffffffffffffffffffffffffff1681526020019081526020016000206000828254610cac9190612d41565b92505081905550809650505050505050610d1f565b3373ffffffffffffffffffffffffffffffffffffffff167f03d06fcda50bc4063978469e87cebb289177c424afa783ce79e2fd502a0c6c318a8a6000604051610d0c93929190613053565b60405180910390a2600096505050505050505b92915050565b60055481565b610d33611b23565b8060058190555050565b610d45611b23565b80600060146101000a81548160ff02191690831515021790555050565b610d6a611b23565b610d746000611d62565b565b600660009054906101000a900473ffffffffffffffffffffffffffffffffffffffff1681565b60008060009054906101000a900473ffffffffffffffffffffffffffffffffffffffff16905090565b60008111610e08576040517f08c379a0000000000000000000000000000000000000000000000000000000008152600401610dff906130f7565b60405180910390fd5b6000610e148484611ba1565b90506002805490508110610e5d576040517f08c379a0000000000000000000000000000000000000000000000000000000008152600401610e5490612c56565b60405180910390fd5b600060028281548110610e7357610e726125fa565b5b9060005260206000209060070201905082600360003373ffffffffffffffffffffffffffffffffffffffff1673ffffffffffffffffffffffffffffffffffffffff168152602001908152602001600020541015610f05576040517f08c379a0000000000000000000000000000000000000000000000000000000008152600401610efc90613163565b60405180910390fd5b82600360003373ffffffffffffffffffffffffffffffffffffffff1673ffffffffffffffffffffffffffffffffffffffff1681526020019081526020016000206000828254610f549190612d41565b9250508190555082600460003373ffffffffffffffffffffffffffffffffffffffff1673ffffffffffffffffffffffffffffffffffffffff1681526020019081526020016000208686604051610fab9291906125e1565b90815260200160405180910390206000828254610fc89190612d41565b9250508190555082600360008873ffffffffffffffffffffffffffffffffffffffff1673ffffffffffffffffffffffffffffffffffffffff168152602001908152602001600020600082825461101e9190613183565b9250508190555082600460008873ffffffffffffffffffffffffffffffffffffffff1673ffffffffffffffffffffffffffffffffffffffff16815260200190815260200160002086866040516110759291906125e1565b908152602001604051809103902060008282546110929190613183565b925050819055508281600301546110a99190612c9f565b600160008360020160009054906101000a900473ffffffffffffffffffffffffffffffffffffffff1673ffffffffffffffffffffffffffffffffffffffff1673ffffffffffffffffffffffffffffffffffffffff168152602001908152602001600020600082825461111b9190613183565b925050819055508573ffffffffffffffffffffffffffffffffffffffff163373ffffffffffffffffffffffffffffffffffffffff167f8b2b4467a6de0f926de0a03a4e154bad98976bba482827976d5e8f4865b4fe7187878760405161118393929190612fe6565b60405180910390a3505050505050565b600460205281600052604060002081805160208101820180518482526020830160208501208183528095505050505050600091509150505481565b6111d6611b23565b60005b60028054905081101561144f5782826040516020016111f99291906125e1565b6040516020818303038152906040528051906020012060028281548110611223576112226125fa565b5b90600052602060002090600702016000016040516020016112449190612721565b604051602081830303815290604052805190602001200361143c57600260016002805490506112739190612d41565b81548110611284576112836125fa565b5b9060005260206000209060070201600282815481106112a6576112a56125fa565b5b9060005260206000209060070201600082018160000190816112c891906131cd565b50600182018160010190816112dd91906131cd565b506002820160009054906101000a900473ffffffffffffffffffffffffffffffffffffffff168160020160006101000a81548173ffffffffffffffffffffffffffffffffffffffff021916908373ffffffffffffffffffffffffffffffffffffffff160217905550600382015481600301556004820154816004015560058201548160050155600682015481600601559050506002805480611382576113816132b5565b5b6001900381819060005260206000209060070201600080820160006113a79190611e2e565b6001820160006113b79190611e2e565b6002820160006101000a81549073ffffffffffffffffffffffffffffffffffffffff02191690556003820160009055600482016000905560058201600090556006820160009055505090557f722116d35f772c77cb0455dbee206d9eb7959d9b1a23971a8130f60751417bfe83836040516114339291906132e4565b60405180910390a15b8080611447906127d3565b9150506111d9565b505050565b60036020528060005260406000206000915090505481565b60016020528060005260406000206000915090505481565b6002818154811061149457600080fd5b90600052602060002090600702016000915090508060000180546114b790612658565b80601f01602080910402602001604051908101604052809291908181526020018280546114e390612658565b80156115305780601f1061150557610100808354040283529160200191611530565b820191906000526020600020905b81548152906001019060200180831161151357829003601f168201915b50505050509080600101805461154590612658565b80601f016020809104026020016040519081016040528092919081815260200182805461157190612658565b80156115be5780601f10611593576101008083540402835291602001916115be565b820191906000526020600020905b8154815290600101906020018083116115a157829003601f168201915b5050505050908060020160009054906101000a900473ffffffffffffffffffffffffffffffffffffffff16908060030154908060040154908060050154908060060154905087565b61160e611b23565b60008290508073ffffffffffffffffffffffffffffffffffffffff1663a9059cbb611637610d9c565b846040518363ffffffff1660e01b8152600401611655929190612d75565b6020604051808303816000875af1158015611674573d6000803e3d6000fd5b505050506040513d601f19601f820116820180604052508101906116989190612db3565b6116d7576040517f08c379a00000000000000000000000000000000000000000000000000000000081526004016116ce90613354565b60405180910390fd5b505050565b600060149054906101000a900460ff1681565b600060149054906101000a900460ff1661173e576040517f08c379a0000000000000000000000000000000000000000000000000000000008152600401611735906133c0565b60405180910390fd5b60008111611781576040517f08c379a0000000000000000000000000000000000000000000000000000000008152600401611778906130f7565b60405180910390fd5b600061178d8484611ba1565b905060028054905081106117d6576040517f08c379a00000000000000000000000000000000000000000000000000000000081526004016117cd90612c56565b60405180910390fd5b6000600282815481106117ec576117eb6125fa565b5b9060005260206000209060070201905060008160020160009054906101000a900473ffffffffffffffffffffffffffffffffffffffff1690508073ffffffffffffffffffffffffffffffffffffffff166323b872dd33308786600301546118539190612c9f565b6040518463ffffffff1660e01b8152600401611871939291906133e0565b6020604051808303816000875af1158015611890573d6000803e3d6000fd5b505050506040513d601f19601f820116820180604052508101906118b49190612db3565b6118f3576040517f08c379a00000000000000000000000000000000000000000000000000000000081526004016118ea90613354565b60405180910390fd5b83600360003373ffffffffffffffffffffffffffffffffffffffff1673ffffffffffffffffffffffffffffffffffffffff16815260200190815260200160002060008282546119429190613183565b9250508190555083600460003373ffffffffffffffffffffffffffffffffffffffff1673ffffffffffffffffffffffffffffffffffffffff16815260200190815260200160002087876040516119999291906125e1565b908152602001604051809103902060008282546119b69190613183565b925050819055508382600301546119cd9190612c9f565b600160008460020160009054906101000a900473ffffffffffffffffffffffffffffffffffffffff1673ffffffffffffffffffffffffffffffffffffffff1673ffffffffffffffffffffffffffffffffffffffff1681526020019081526020016000206000828254611a3f9190613183565b925050819055503373ffffffffffffffffffffffffffffffffffffffff167fbb0695499e0ff7f02f1c96ebdb7c8d5c5187d333863d20000419849d7c11c721878787604051611a9093929190612fe6565b60405180910390a2505050505050565b611aa8611b23565b600073ffffffffffffffffffffffffffffffffffffffff168173ffffffffffffffffffffffffffffffffffffffff1603611b17576040517f08c379a0000000000000000000000000000000000000000000000000000000008152600401611b0e90613489565b60405180910390fd5b611b2081611d62565b50565b611b2b611e26565b73ffffffffffffffffffffffffffffffffffffffff16611b49610d9c565b73ffffffffffffffffffffffffffffffffffffffff1614611b9f576040517f08c379a0000000000000000000000000000000000000000000000000000000008152600401611b96906134f5565b60405180910390fd5b565b600080600090505b600280549050811015611c4b578383604051602001611bc99291906125e1565b6040516020818303038152906040528051906020012060028281548110611bf357611bf26125fa565b5b9060005260206000209060070201600001604051602001611c149190612721565b6040516020818303038152906040528051906020012003611c385780915050611c87565b8080611c43906127d3565b915050611ba9565b506040517f08c379a0000000000000000000000000000000000000000000000000000000008152600401611c7e90613561565b60405180910390fd5b92915050565b60006064603c8360060154611ca29190612c9f565b611cac9190612d10565b8311611cbe5781600301549050611d5c565b6064605a8360060154611cd19190612c9f565b611cdb9190612d10565b8311611cf95760028260030154611cf29190612c9f565b9050611d5c565b6064605f8360060154611d0c9190612c9f565b611d169190612d10565b8311611d345760038260030154611d2d9190612c9f565b9050611d5c565b81600601548311611d575760048260030154611d509190612c9f565b9050611d5c565b600090505b92915050565b60008060009054906101000a900473ffffffffffffffffffffffffffffffffffffffff169050816000806101000a81548173ffffffffffffffffffffffffffffffffffffffff021916908373ffffffffffffffffffffffffffffffffffffffff1602179055508173ffffffffffffffffffffffffffffffffffffffff168173ffffffffffffffffffffffffffffffffffffffff167f8be0079c531659141344cd1fd0a4f28419497f9722a3daafe3b4186f6b6457e060405160405180910390a35050565b600033905090565b508054611e3a90612658565b6000825580601f10611e4c5750611e6b565b601f016020900490600052602060002090810190611e6a9190611e6e565b5b50565b5b80821115611e87576000816000905550600101611e6f565b5090565b6000604051905090565b600080fd5b600080fd5b600080fd5b600080fd5b600080fd5b60008083601f840112611ec457611ec3611e9f565b5b8235905067ffffffffffffffff811115611ee157611ee0611ea4565b5b602083019150836001820283011115611efd57611efc611ea9565b5b9250929050565b600073ffffffffffffffffffffffffffffffffffffffff82169050919050565b6000611f2f82611f04565b9050919050565b611f3f81611f24565b8114611f4a57600080fd5b50565b600081359050611f5c81611f36565b92915050565b6000819050919050565b611f7581611f62565b8114611f8057600080fd5b50565b600081359050611f9281611f6c565b92915050565b600080600080600080600080600060e08a8c031215611fba57611fb9611e95565b5b60008a013567ffffffffffffffff811115611fd857611fd7611e9a565b5b611fe48c828d01611eae565b995099505060208a013567ffffffffffffffff81111561200757612006611e9a565b5b6120138c828d01611eae565b975097505060406120268c828d01611f4d565b95505060606120378c828d01611f83565b94505060806120488c828d01611f83565b93505060a06120598c828d01611f83565b92505060c061206a8c828d01611f83565b9150509295985092959850929598565b6000806020838503121561209157612090611e95565b5b600083013567ffffffffffffffff8111156120af576120ae611e9a565b5b6120bb85828601611eae565b92509250509250929050565b6120d081611f62565b82525050565b60006020820190506120eb60008301846120c7565b92915050565b60006020828403121561210757612106611e95565b5b600061211584828501611f83565b91505092915050565b60008115159050919050565b6121338161211e565b811461213e57600080fd5b50565b6000813590506121508161212a565b92915050565b60006020828403121561216c5761216b611e95565b5b600061217a84828501612141565b91505092915050565b61218c81611f24565b82525050565b60006020820190506121a76000830184612183565b92915050565b600080600080606085870312156121c7576121c6611e95565b5b60006121d587828801611f4d565b945050602085013567ffffffffffffffff8111156121f6576121f5611e9a565b5b61220287828801611eae565b9350935050604061221587828801611f83565b91505092959194509250565b600080fd5b6000601f19601f8301169050919050565b7f4e487b7100000000000000000000000000000000000000000000000000000000600052604160045260246000fd5b61226f82612226565b810181811067ffffffffffffffff8211171561228e5761228d612237565b5b80604052505050565b60006122a1611e8b565b90506122ad8282612266565b919050565b600067ffffffffffffffff8211156122cd576122cc612237565b5b6122d682612226565b9050602081019050919050565b82818337600083830152505050565b6000612305612300846122b2565b612297565b90508281526020810184848401111561232157612320612221565b5b61232c8482856122e3565b509392505050565b600082601f83011261234957612348611e9f565b5b81356123598482602086016122f2565b91505092915050565b6000806040838503121561237957612378611e95565b5b600061238785828601611f4d565b925050602083013567ffffffffffffffff8111156123a8576123a7611e9a565b5b6123b485828601612334565b9150509250929050565b6000602082840312156123d4576123d3611e95565b5b60006123e284828501611f4d565b91505092915050565b600081519050919050565b600082825260208201905092915050565b60005b8381101561242557808201518184015260208101905061240a565b60008484015250505050565b600061243c826123eb565b61244681856123f6565b9350612456818560208601612407565b61245f81612226565b840191505092915050565b600060e0820190508181036000830152612484818a612431565b905081810360208301526124988189612431565b90506124a76040830188612183565b6124b460608301876120c7565b6124c160808301866120c7565b6124ce60a08301856120c7565b6124db60c08301846120c7565b98975050505050505050565b600080604083850312156124fe576124fd611e95565b5b600061250c85828601611f4d565b925050602061251d85828601611f83565b9150509250929050565b6125308161211e565b82525050565b600060208201905061254b6000830184612527565b92915050565b60008060006040848603121561256a57612569611e95565b5b600084013567ffffffffffffffff81111561258857612587611e9a565b5b61259486828701611eae565b935093505060206125a786828701611f83565b9150509250925092565b600081905092915050565b60006125c883856125b1565b93506125d58385846122e3565b82840190509392505050565b60006125ee8284866125bc565b91508190509392505050565b7f4e487b7100000000000000000000000000000000000000000000000000000000600052603260045260246000fd5b7f4e487b7100000000000000000000000000000000000000000000000000000000600052602260045260246000fd5b6000600282049050600182168061267057607f821691505b60208210810361268357612682612629565b5b50919050565b60008190508160005260206000209050919050565b600081546126ab81612658565b6126b581866125b1565b945060018216600081146126d057600181146126e557612718565b60ff1983168652811515820286019350612718565b6126ee85612689565b60005b83811015612710578154818901526001820191506020810190506126f1565b838801955050505b50505092915050565b600061272d828461269e565b915081905092915050565b7f426f782074797065206578697374000000000000000000000000000000000000600082015250565b600061276e600e836123f6565b915061277982612738565b602082019050919050565b6000602082019050818103600083015261279d81612761565b9050919050565b7f4e487b7100000000000000000000000000000000000000000000000000000000600052601160045260246000fd5b60006127de82611f62565b91507fffffffffffffffffffffffffffffffffffffffffffffffffffffffffffffffff82036128105761280f6127a4565b5b600182019050919050565b60006020601f8301049050919050565b600082821b905092915050565b6000600883026128687fffffffffffffffffffffffffffffffffffffffffffffffffffffffffffffffff8261282b565b612872868361282b565b95508019841693508086168417925050509392505050565b6000819050919050565b60006128af6128aa6128a584611f62565b61288a565b611f62565b9050919050565b6000819050919050565b6128c983612894565b6128dd6128d5826128b6565b848454612838565b825550505050565b600090565b6128f26128e5565b6128fd8184846128c0565b505050565b5b81811015612921576129166000826128ea565b600181019050612903565b5050565b601f8211156129665761293781612689565b6129408461281b565b8101602085101561294f578190505b61296361295b8561281b565b830182612902565b50505b505050565b600082821c905092915050565b60006129896000198460080261296b565b1980831691505092915050565b60006129a28383612978565b9150826002028217905092915050565b6129bb826123eb565b67ffffffffffffffff8111156129d4576129d3612237565b5b6129de8254612658565b6129e9828285612925565b600060209050601f831160018114612a1c5760008415612a0a578287015190505b612a148582612996565b865550612a7c565b601f198416612a2a86612689565b60005b82811015612a5257848901518255600182019150602085019450602081019050612a2d565b86831015612a6f5784890151612a6b601f891682612978565b8355505b6001600288020188555050505b505050505050565b6000612a9083856123f6565b9350612a9d8385846122e3565b612aa683612226565b840190509392505050565b600060e0820190508181036000830152612acc818b8d612a84565b90508181036020830152612ae181898b612a84565b9050612af06040830188612183565b612afd60608301876120c7565b612b0a60808301866120c7565b612b1760a08301856120c7565b612b2460c08301846120c7565b9a9950505050505050505050565b7f596f752068617665206e6f20426f787320746f206f70656e0000000000000000600082015250565b6000612b686018836123f6565b9150612b7382612b32565b602082019050919050565b60006020820190508181036000830152612b9781612b5b565b9050919050565b7f596f752068617665206e6f20426f7873206f6620746869732074797065000000600082015250565b6000612bd4601d836123f6565b9150612bdf82612b9e565b602082019050919050565b60006020820190508181036000830152612c0381612bc7565b9050919050565b7f496e76616c696420426f78207479706500000000000000000000000000000000600082015250565b6000612c406010836123f6565b9150612c4b82612c0a565b602082019050919050565b60006020820190508181036000830152612c6f81612c33565b9050919050565b6000612c8182611f62565b915060008203612c9457612c936127a4565b5b600182039050919050565b6000612caa82611f62565b9150612cb583611f62565b9250828202612cc381611f62565b91508282048414831517612cda57612cd96127a4565b5b5092915050565b7f4e487b7100000000000000000000000000000000000000000000000000000000600052601260045260246000fd5b6000612d1b82611f62565b9150612d2683611f62565b925082612d3657612d35612ce1565b5b828204905092915050565b6000612d4c82611f62565b9150612d5783611f62565b9250828203905081811115612d6f57612d6e6127a4565b5b92915050565b6000604082019050612d8a6000830185612183565b612d9760208301846120c7565b9392505050565b600081519050612dad8161212a565b92915050565b600060208284031215612dc957612dc8611e95565b5b6000612dd784828501612d9e565b91505092915050565b6000819050919050565b612dfb612df682611f62565b612de0565b82525050565b60008160601b9050919050565b6000612e1982612e01565b9050919050565b6000612e2b82612e0e565b9050919050565b612e43612e3e82611f24565b612e20565b82525050565b7f64656d61726b6574000000000000000000000000000000000000000000000000600082015250565b6000612e7f6008836125b1565b9150612e8a82612e49565b600882019050919050565b6000612ea18286612dea565b602082019150612eb18285612dea565b602082019150612ec18284612e32565b601482019150612ed082612e72565b9150819050949350505050565b6000612ee882611f62565b9150612ef383611f62565b925082612f0357612f02612ce1565b5b828206905092915050565b7f7072697a65206578636565642074686520746f74616c00000000000000000000600082015250565b6000612f446016836123f6565b9150612f4f82612f0e565b602082019050919050565b60006020820190508181036000830152612f7381612f37565b9050919050565b7f5472616e73666572206f66207072697a65206661696c65640000000000000000600082015250565b6000612fb06018836123f6565b9150612fbb82612f7a565b602082019050919050565b60006020820190508181036000830152612fdf81612fa3565b9050919050565b60006040820190508181036000830152613001818587612a84565b905061301060208301846120c7565b949350505050565b6000819050919050565b600061303d61303861303384613018565b61288a565b611f62565b9050919050565b61304d81613022565b82525050565b6000604082019050818103600083015261306e818587612a84565b905061307d6020830184613044565b949350505050565b7f4e756d626572206f6620426f7873206d7573742062652067726561746572207460008201527f68616e207a65726f000000000000000000000000000000000000000000000000602082015250565b60006130e16028836123f6565b91506130ec82613085565b604082019050919050565b60006020820190508181036000830152613110816130d4565b9050919050565b7f496e73756666696369656e7420426f787320746f206769667400000000000000600082015250565b600061314d6019836123f6565b915061315882613117565b602082019050919050565b6000602082019050818103600083015261317c81613140565b9050919050565b600061318e82611f62565b915061319983611f62565b92508282019050808211156131b1576131b06127a4565b5b92915050565b6000815490506131c681612658565b9050919050565b8181036131db5750506132b3565b6131e4826131b7565b67ffffffffffffffff8111156131fd576131fc612237565b5b6132078254612658565b613212828285612925565b6000601f831160018114613241576000841561322f578287015490505b6132398582612996565b8655506132ac565b601f19841661324f87612689565b965061325a86612689565b60005b828110156132825784890154825560018201915060018501945060208101905061325d565b8683101561329f578489015461329b601f891682612978565b8355505b6001600288020188555050505b5050505050505b565b7f4e487b7100000000000000000000000000000000000000000000000000000000600052603160045260246000fd5b600060208201905081810360008301526132ff818486612a84565b90509392505050565b7f5472616e73666572206661696c65640000000000000000000000000000000000600082015250565b600061333e600f836123f6565b915061334982613308565b602082019050919050565b6000602082019050818103600083015261336d81613331565b9050919050565b7f436f6e7472616374206973206e6f74206f70656e2e0000000000000000000000600082015250565b60006133aa6015836123f6565b91506133b582613374565b602082019050919050565b600060208201905081810360008301526133d98161339d565b9050919050565b60006060820190506133f56000830186612183565b6134026020830185612183565b61340f60408301846120c7565b949350505050565b7f4f776e61626c653a206e6577206f776e657220697320746865207a65726f206160008201527f6464726573730000000000000000000000000000000000000000000000000000602082015250565b60006134736026836123f6565b915061347e82613417565b604082019050919050565b600060208201905081810360008301526134a281613466565b9050919050565b7f4f776e61626c653a2063616c6c6572206973206e6f7420746865206f776e6572600082015250565b60006134df6020836123f6565b91506134ea826134a9565b602082019050919050565b6000602082019050818103600083015261350e816134d2565b9050919050565b7f426f782074797065206e6f7420666f756e640000000000000000000000000000600082015250565b600061354b6012836123f6565b915061355682613515565b602082019050919050565b6000602082019050818103600083015261357a8161353e565b905091905056fea26469706673582212208ca14ca40453845656aa67fe3d3d63af6d1d8643ca1160d0b70c6b1e1037b4ac64736f6c63430008130033",
  "linkReferences": {},
  "deployedLinkReferences": {}
}